:02000000092ACB
:0E000600533083120313FD00FD0B0728080082
:10001400243083120313FC00B530FD00FD0B1028BF
:0A002400FC0B10280000000008008B
:0C002E00000000000000000000000800BE
:10003A0083120313C01B2328861124288615401B0C
:10004A002828061129280615C01A2D2886102E28B8
:10005A008614401A32280610332806142018372826
:10006A00061638280612861617208612C0193F2847
:10007A008611402886154019442806114528061578
:10008A00C018492886104A28861440184E28061097
:10009A004F280614201853280616542806128616C6
:1000AA0017208612201C5B280A205C2803200800DF
:1000BA0083120313F801F9011030FC00710DF80DD9
:1000CA00F90D7408F8027508031C750FF902031874
:1000DA0075287408F80775080318750FF9070310CF
:0A00EA00F00DF10DFC0B6328080077
:1000F40083120313FB01FA01F9018030F800F10CBB
:10010400F00C031C8E287408F90775080318750F82
:10011400FA070318FB0A0310F01F96287408FA075D
:1001240075080318750FFB07FB0CFA0CF90CF80C97
:10013400031C81287B08F3007A08F2007908F10097
:060144007808F00008003D
:10014A008312031320103F08C0001D20201408004A
:10015A00243083120313FD00FD0BB12800000800B0
:10016A00831203133D08840020308000840A203063
:10017A008000840A20308000840A20308000840AAB
:10018A0030308000840A8001840A04303D07BE00B2
:10019A0000303C06031DD32800303B060319F5281E
:1001AA000A30F400F5013B08F0003C08F1005D203C
:1001BA007808F0007908F1003030F0073E08840032
:1001CA00700880000A30F400F5013B08F0003C0892
:1001DA00F1005D207008BB007108BC00BE03CD2889
:0201EA0008000B
:1001EC00831203133B08013A031DFF288030BB0028
:1001FC0016293B08023A031D0629C030BB001629FC
:10020C003B08033A031D0D299430BB0016293B080B
:10021C00043A031D1429D430BB0016298030BB00CE
:10022C003C03F0003B08F0077008BB007008C000EE
:10023C001D202010BE013E083D0784000008003A36
:10024C00031930293E083D0784000008BF00A52093
:08025C00BE0A2129201408004C
:0C02640083120313950117129712080073
:10027000831603130711831212150C30970408001C
:1002800083160313861206120610861006118611B5
:1002900083128612061286110611861006100A2095
:1002A0000A200A20861406148616172086120A20B1
:1002B0008616172086120A208616172086120A2014
:1002C00006108616172086120A2086161720861218
:1002D000861086158616172086120A2086110614A7
:1002E00086161720861206108616172086120A20F8
:1002F00086161720861206148616172086120A20E4
:100300000610861617208612861506158614061402
:0C0310008616172086120A202014080010
:10031C00FF3083120313A100FF30A200FF30A300B3
:10032C00FF30C3309F05C0309F00CF3083169F0530
:08033C009F1783121F14080033
:10034400831603131208013EF00000300318013E27
:10035400F10083123B08F400F5017A200630F20024
:100364007008F4007108F50072080319BE29F50C31
:10037400F40CF513FF3EB7290430F1007408F000C3
:1003840071080319C929F00D7010FF3EC3293030DC
:100394007005F3007408F0007508F100F10CF00C1E
:1003A400F113F10CF00CF113700895000F30970560
:0603B40073089704080025
:1003BA00C330831203139F05C0309F003B08F0002F
:1003CA00F00D7010F00D701070089F04CF30831676
:1003DA009F059F1783121F14AD209F149F1CF72996
:1003EA000000F3291F101E08F100F00183161E08F1
:1003FA0070048312BC007108BD000030BD043C08C3
:08040A00F0003D08F1000800BC
:100412000130831603178800890101300313850018
:1004220007118312071140210C30C0001D2001303A
:10043200BB000130BC005030B5005730B6004D3023
:10044200B7003A30B8002030B900BA013530BD00EB
:10045200F6200230BB000130BC004130B500443010
:10046200B6004330B7003A30B8002030B900BA01C4
:100472003530BD00F6208E21121092101214921007
:10048200F9308316920032213821BB01A221BB012F
:10049200DD217008A5007108A6007008F20071083D
:1004A200F300F30CF20CF313F30CF20CF3137208D7
:1004B200A4007208BB00BC012E30BD00B520250887
:1004C200BB002608BC002730BD00B5200130BB00B0
:1004D2000630BC002E30BD00F6200230BB000630D4
:1004E200BC002730BD00F6202408BB00A221482A08
:0204F200792A65
:04400E00F22F000786
:00000001FF
