:0200000049298C
:10000600831203132608003A031D0C283F30A20072
:100016004B282608013A031D13280630A2004B2858
:100026002608023A031D1A285B30A2004B28260830
:10003600033A031D21284F30A2004B282608043A14
:10004600031D28286630A2004B282608053A031D02
:100056002F286D30A2004B282608063A031D3628A5
:100066007D30A2004B282608073A031D3D2807309D
:10007600A2004B282608083A031D44287F30A20018
:100086004B282608093A031D4B286F30A2004B283F
:02009600080060
:10009800831203137408003A031D5528FF30F0003B
:1000A800652883120313F8010830FC00700DF80D61
:1000B8007408F80203186228F8070310F00DFC0B07
:0400C8005A280800AA
:1000CC00831203137008F100F0010830FC00710872
:1000DC00F40C03187528FC0B6E28F1010034031086
:1000EC007A28F40C0318F107F10CF00CFC0B7728B0
:0200FC000800FA
:1000FE00831203132408053CFF3003180030F1006F
:10010E0023188B2803148C280310F0010318F00A0F
:10011E007108F00503199528A130880005302402D6
:10012E00FF3003180030F1002408003CFF300318A4
:10013E000030F0007008F1052318A7280314A82832
:10014E000310F0010318F00A7108F0050319C52811
:10015E00913088004130FC00EE30FD00FD0BB528DB
:10016E00FC0BB5280000113088004130FC00EE3049
:10017E00FD00FD0BC028FC0BC02800002408003A2F
:10018E00FF30031D0030F1002318CF280314D028B0
:10019E000310F0010318F00A7108F0050319D928AD
:1001AE00893088002408053CFF3003180030F10028
:1001BE002318E3280310E4280314F0010318F00AAF
:1001CE007108F0050319ED284C3088000530240223
:1001DE00FF3003180030F1002408003CFF300318F4
:1001EE000030F0007008F1052318FF2803100029D5
:1001FE000314F0010318F00A7108F0050319092918
:10020E004A3088002408003AFF30031D0030F10008
:10021E0023181329031014290314F0010318F00AEC
:10022E007108F00503191D29493088002408003A89
:10023E00031D4829A50187012008A60003202208D6
:10024E008600023087000730FC007D30FD00FD0B7C
:10025E002E29FC0B2E2987012108A6000320220837
:10026E008600013087000730FC007D30FD00FD0B5D
:10027E003E29FC0B3E292508FF3A03194829A50AF9
:04028E002229080019
:100292008316031385018601870188018312850174
:1002A2008601870188018316031789018801831259
:1002B200031323103630A4000A30F4002408F0009F
:1002C2004C207008A1000A30F40066207008240255
:1002D200A0007F20A50187012008A6000320220894
:1002E2008600023087000730FC007D30FD00FD0BE8
:1002F2007829FC0B782987012108A600032022080F
:100302008600013087000730FC007D30FD00FD0BC8
:100312008829FC0B88292508FF3A03199229A50A86
:100322006C292408003A03199929FF30A4075D2992
:080332000130A3065B299C29A0
:04400E00F22F000786
:00000001FF
