:020000007F2857
:10000600831203137408003A031D0C28FF30F00016
:100016001C2883120313F8010830FC00700DF80D3C
:100026007408F80203181928F8070310F00DFC0BE2
:040036001128080085
:10003A00831203132508003A031D26283F30A10026
:10004A0065282508013A031D2D280630A1006528D8
:10005A002508023A031D34285B30A10065282508CB
:10006A00033A031D3B284F30A10065282508043AAE
:10007A00031D42286630A10065282508053A031D9C
:10008A0049286D30A10065282508063A031D502825
:10009A007D30A10065282508073A031D5728073037
:1000AA00A10065282508083A031D5E287F30A100B3
:1000BA0065282508093A031D65286F30A1006528BF
:0200CA0008002C
:1000CC00831203137008F100F0010830FC00710872
:1000DC00F40C03187528FC0B6E28F1010034031086
:1000EC007A28F40C0318F107F10CF00CFC0B7728B0
:0200FC000800FA
:1000FE00363083120313A0000A30F4002008F000FB
:10010E0003207008A2000A30F40066207008200256
:10011E00A400A30188012408A5001D202108860043
:10012E00023088000730FC007D30FD00FD0B9D285D
:10013E00FC0B9D2888012408A5001D20210886009F
:10014E00013088000730FC007D30FD00FD0BAD282E
:10015E00FC0BAD282308643A0319B728A30A91288B
:10016E002008003A0319BE28FF30A0078328BE28B6
:04400E00F22F000786
:00000001FF
