:020000009C283A
:10000600831203132408413A031D0C287730A200FB
:1000160052282408483A031D13287630A200522895
:1000260024084F3A031D1A283F30A20052282408FC
:100036004C3A031D21283830A20052282408553A8C
:10004600031D28283E30A20052282408453A031DE5
:100056002F287930A20052282408543A031D362846
:100066007830A20052282408533A031D3D286D30EB
:10007600A20052282408503A031D44287330A200D7
:1000860052282408493A031D4B283030A200522832
:100096002408433A031D52283930A200522808008A
:1000A600831203132308003A031D5C283F30A20085
:1000B6009B282308013A031D63280630A2009B28CB
:1000C6002308023A031D6A285B30A2009B282308F6
:1000D600033A031D71284F30A2009B282308043AD7
:1000E600031D78286630A2009B282308053A031DC5
:1000F6007F286D30A2009B282308063A031D862818
:100106007D30A2009B282308073A031D8D2807305F
:10011600A2009B282308083A031D94287F30A200DA
:100126009B282308093A031D9B286F30A2009B28B1
:020136000800BF
:1001380083160313860188018312860188018316BA
:100148000317890183120313A0014830A400032078
:10015800880122088600103088000D30FC00FB3032
:10016800FD00FD0BB528FC0BB528000000004F3042
:10017800A4000320880122088600203088000D3062
:10018800FC00FB30FD00FD0BC728FC0BC728000056
:1001980000004C30A400032088012208860040306B
:1001A80088000D30FC00FB30FD00FD0BD928FC0B4E
:1001B800D928000000004130A4000320880122084B
:1001C8008600803088000D30FC00FB30FD00FD0B00
:1001D800EB28FC0BEB28000000002008FF3A03196D
:1001E800F728A00AA92888010D30FB00AF30FC00D1
:1001F800B630FD00FD0BFE28FC0BFE28FB0BFE288D
:100208000000A3015320880122088600803088005E
:100218000B30FB002630FC005D30FD00FD0B122981
:10022800FC0B1229FB0B1229000000000130A3006F
:100238005320880122088600403088000B30FB00DC
:100248002630FC005D30FD00FD0B2829FC0B282919
:10025800FB0B2829000000000230A300532088016E
:1002680022088600203088000B30FB002630FC0076
:100278005D30FD00FD0B3E29FC0B3E29FB0B3E29A2
:10028800000000000330A3005320880122088600E4
:10029800103088000B30FB002630FC005D30FD007C
:1002A800FD0B5429FC0B5429FB0B542900000000BA
:1002B80088010D30FB00AF30FC00B630FD00FD0BAF
:1002C8006329FC0B6329FB0B63290000A101A00132
:1002D8005030A4000320880122088600803088005E
:1002E8000D30FC00FB30FD00FD0B7829FC0B782954
:1002F800000000002008643A03198429A00A6C2928
:10030800A0015030A4000320880122088600403054
:1003180088000D30FC00FB30FD00FD0B9129FC0B23
:100328009129000000004930A40003208801220818
:100338008600803088000D30FC00FB30FD00FD0B8E
:10034800A329FC0BA329000000002008643A031924
:10035800AF29A00A8529A0015030A40003208801F4
:1003680022088600203088000D30FC00FB30FD009C
:10037800FD0BBC29FC0BBC29000000004930A4007F
:100388000320880122088600403088000D30FC00D8
:10039800FB30FD00FD0BCE29FC0BCE290000000030
:1003A8004330A4000320880122088600803088009A
:1003B8000D30FC00FB30FD00FD0BE029FC0BE029B3
:1003C800000000002008643A0319EC29A00AB029AB
:1003D800A0015030A40003208801220886001030B4
:1003E80088000D30FC00FB30FD00FD0BF929FC0BEB
:1003F800F929000000004930A400032088012208E0
:100408008600203088000D30FC00FB30FD00FD0B1D
:100418000B2AFC0B0B2A000000004330A400032029
:10042800880122088600403088000D30FC00FB302F
:10043800FD00FD0B1D2AFC0B1D2A000000002008F2
:10044800643A0319292AA00AED29A0015030A40012
:100458000320880122088600203088000D30FC0027
:10046800FB30FD00FD0B362AFC0B362A000000008D
:100478004930A40003208801220886004030880003
:100488000D30FC00FB30FD00FD0B482AFC0B482A10
:10049800000000004330A4000320880122088600E1
:1004A800803088000D30FC00FB30FD00FD0B5A2A1F
:1004B800FC0B5A2A000000002008643A0319662A37
:1004C800A00A2A2AA0015030A4000320880122088B
:1004D8008600403088000D30FC00FB30FD00FD0B2D
:1004E800732AFC0B732A000000004930A400032083
:1004F800880122088600803088000D30FC00FB301F
:10050800FD00FD0B852AFC0B852A00000000200851
:10051800643A0319912AA00A672AA0015030A4005E
:100528000320880122088600803088000D30FC00F6
:10053800FB30FD00FD0B9E2AFC0B9E2A00000000EC
:100548002008643A0319AA2AA00A922A88010930C5
:10055800FB00E130FC00B230FD00FD0BB12AFC0BC2
:10056800B12AFB0BB12A00002108023A0319BE2A5E
:10057800A10A6B290D30FB00AF30FC00B630FD003E
:10058800FD0BC42AFC0BC42AFB0BC42A0000A101E2
:10059800A0015530A40003208801220886001030ED
:1005A80088000D30FC00FB30FD00FD0BD92AFC0B48
:1005B800D92A000000004530A40003208801220841
:1005C8008600203088000D30FC00FB30FD00FD0B5C
:1005D800EB2AFC0BEB2A000000005430A400032097
:1005E800880122088600403088000D30FC00FB306E
:1005F800FD00FD0BFD2AFC0BFD2A00000000533016
:10060800A4000320880122088600803088000D306D
:10061800FC00FB30FD00FD0B0F2BFC0B0F2B00002B
:1006280000002008193A03191B2BA00ACD2A8801BB
:100638000730FB005830FC005930FD00FD0B222B21
:10064800FC0B222BFB0B222B000000002108013A97
:100658000319302BA10ACC2A0D30FB00AF30FC0067
:10066800B630FD00FD0B362BFC0B362BFB0B362B67
:100678000000A501A6014830A40003208801220833
:100688008600103088000D30FC00FB30FD00FD0BAB
:100698004B2BFC0B4B2B000000004130A400032027
:1006A800880122088600203088000D30FC00FB30CD
:1006B800FD00FD0B5D2BFC0B5D2B000000004C309A
:1006C800A4000320880122088600403088000D30ED
:1006D800FC00FB30FD00FD0B6F2BFC0B6F2B0000AB
:1006E80000004F30A40003208801220886008030D3
:1006F80088000D30FC00FB30FD00FD0B812BFC0B4E
:10070800812B000000002608013A031D8D2BC23002
:1007180025060319932BA50A0319A60A3F2B88015E
:100728000D30FB00AF30FC00B630FD00FD0B9A2BFE
:10073800FC0B9A2BFB0B9A2B0000A0012008A300AE
:100748005320F0308800220886000D30FB00AF30BF
:10075800FC00B630FD00FD0BAF2BFC0BAF2BFB0BE9
:10076800AF2B00002008093A0319BC2BA00AA22BC2
:1007780088010D30FB00AF30FC00B630FD00FD0BEA
:10078800C32BFC0BC32BFB0BC32B0000A628CB2BC6
:04400E00F22F000786
:00000001FF
