:020000004C2A88
:0C000600000000000000000000000800E6
:10001200243083120313FC00B530FD00FD0B0F28C2
:0A002200FC0B0F280000000008008E
:0E002C00533083120313FD00FD0B1A28080049
:10003A0083120313D11B2328871124288715511BE8
:10004A002828071129280715D11A2D2887102E28A4
:10005A008714511A3228071033280714241837280E
:10006A00071638280712871603208712D1193F2846
:10007A008711402887155119442807114528071563
:10008A00D118492887104A28871451184E28071072
:10009A004F280714241853280716542807128716BE
:1000AA0003208712241C5B2809205C2816200800DC
:1000BA008312031324105008D1001D2024140800B1
:1000CA00103083120313FD00FD0B6928000008009D
:1000DA0083120313CD01CE011030CC00CA010430C3
:1000EA004E020318A428F03086000630CF00803074
:1000FA004F07F1007108CF004C09F0007108840025
:10010A0070088000032003200F300605F1007108F3
:10011A00CB007108003A03199E284D08CA004B0803
:10012A00003A03199C28CB0CCB13CA0A9428043032
:10013A00CE00CC0D4C100430CD07CE0A74284A08E4
:04014A00F0000800B9
:10014E00831203134A08013A031DB0288030CA00F7
:10015E00C7284A08023A031DB728C030CA00C7286C
:10016E004A08033A031DBE289430CA00C7284A081D
:10017E00043A031DC528D430CA00C7288030CA00EF
:10018E004B03F0004A08F0077008CA007008D1004F
:10019E001D202410CD014D084C0784000008003AA4
:1001AE000319E1284D084C0784000008D0005D209B
:0801BE00CD0AD2282414080028
:1001C600013083120313D1001D200130CA00013013
:1001D600CB004330BA004C30BB004130BC00563037
:1001E600BD004530BE003D30BF00C0013A30CC00F6
:0401F600A720080036
:1001FA006D207008BA000630BC003C0884000F303D
:10020A000005BB003B08003A0319122965203C0887
:10021A0084000F300005BB0007293A08F0000800E7
:10022A000030831203132306031D1D2904302206FE
:10023A00031D26290230A406A41C252908142629F0
:04024A000810080090
:10024E0083120313A701A8010130D1001D20013034
:10025E00CA000130CB004130BA002E30BB00203036
:10026E00BC004C30BD003130BE002030BF0020300D
:10027E00C0002030C1002030C2002030C300423008
:10028E00C4002E30C5002030C6004C30C7003230BE
:10029E00C800C9013A30CC00A720A41024110800D0
:1002AE00803083120313F0007008063E8400FF3086
:0402BE0080000800B4
:1002C20083120313FB01FA01F9018030F800F10CEB
:1002D200F00C031C75297408F90775080318750FCB
:1002E200FA070318FB0A0310F01F7D297408FA07A6
:1002F20075080318750FFB07FB0CFA0CF90CF80CC8
:10030200031C68297B08F3007A08F2007908F100DF
:060312007808F00008006D
:10031800013083120313A500A601FF3088000D30B9
:10032800FB00AF30FC00B630FD00FD0B9929FC0B3B
:100338009929FB0B9929000088010D30FB00AF308B
:10034800FC00B630FD00FD0BA729FC0BA729FB0B11
:10035800A729000000302606031DB429023025060F
:0E0368000319BA29A50A0319A60A912908004B
:10037600013083120313D1001D200130CA00013061
:10038600CB005330BA005530BB004D30BC00413075
:10039600BD005430BE004930BF005630C000413069
:1003A600C1002030C2004930C3004930C400C50135
:1003B6003A30CC00A7201A30FB005E30FC006E30CD
:1003C600FD00FD0BE429FC0BE429FB0BE4290000EE
:0203D60008001D
:1003D8000030831203132306031DF4290830220674
:1003E800031DFD290430A406241DFC298814FD29B9
:0403F8008810080061
:1003FC008316031387120712071087100711871132
:10040C008312871207128711071187100710092012
:10041C000920092087140714871603208712092046
:10042C0087160320871209208716032087120920BC
:10043C0007108716032087120920871603208712BE
:10044C008710871587160320871209208711071438
:10045C00871603208712071087160320871209209E
:10046C00871603208712071487160320871209208A
:10047C000710871603208712871507158714071492
:0C048C00871603208712092024140800A2
:1004980083160317890188010313870188018312D2
:1004A8008801FE215721BB21E320A701A801A5014E
:1004B800A601A701A801E320A201A3010030230699
:1004C800031D682A00302206031D6F2AFD207008CC
:1004D800A200A301622A00302306031D752A0130F9
:1004E8002206031D7B2A0130A000A1012E2B00301B
:1004F8002306031D812A02302206031D872A0230A3
:10050800A000A1012E2B00302306031D8D2A0330E5
:100518002206031D932A0330A000A1012E2B0030D0
:100528002306031D992A04302206031D9F2A413001
:10053800A000A1012E2B00302306031DA52A05309B
:100548002206031DAB2A0430A000A1012E2B003087
:100558002306031DB12A06302206031DB72A0530DB
:10056800A000A1012E2B00302306031DBD2A073051
:100578002206031DC32A0630A000A1012E2B00303D
:100588002306031DC92A08302206031DCF2A42303C
:10059800A000A1012E2B00302306031DD52A093007
:1005A8002206031DDB2A0730A000A1012E2B0030F4
:1005B8002306031DE12A0A302206031DE72A083014
:1005C800A000A1012E2B00302306031DED2A0B30BD
:1005D8002206031DF32A0930A000A1012E2B0030AA
:1005E8002306031DF92A0C302206031DFF2A433077
:1005F800A000A1012E2B00302306031D052B0D3072
:100608002206031D0B2B2A30A000A1012E2B00303F
:100618002306031D112B0E302206031D162BA001E5
:10062800A1012E2B00302306031D1C2B0F302206A0
:10063800031D222B2330A000A1012E2B00302306FE
:10064800031D282B10302206031D2E2B4430A0003A
:10065800A1012E2B00302102031D342B0A30200269
:1006680003184A2B2008303ED0005D202708F000F0
:100678002808F1000A30F400F5016121200870070C
:10068800A70071080318013E2107A80000302106C1
:10069800031D502B2A302006031D0E2C2808093A6A
:1006A800031D582B78302706031D842B0130D100F9
:1006B8001D200130CA000130CB004330A9004F3063
:1006C800AA005230AB005230AC004530AD00433088
:1006D800AE005430AF004F30B000B1012930CC002B
:1006E800A7201A30FB005E30FC006E30FD00FD0BC9
:1006F8007B2BFC0B7B2BFB0B7B2B00008C210F2C0B
:10070800A50A0319A60A00302606031D8D2B023000
:100718002506031DD52B0130CA000130CB00493016
:10072800A9004E30AA004330AB004F30AC00523025
:10073800AD005230AE004530AF004330B000543009
:10074800B1004F30B2002030B3002030B400203068
:10075800B5002030B6002030B7002030B800B9010D
:100768002930CC00A720FF3088000D30FB00AF30C7
:10077800FC00B630FD00FD0BBF2BFC0BBF2BFB0BA9
:10078800BF2B000088010D30FB00AF30FC00B630F5
:10079800FD00FD0BCD2BFC0BCD2BFB0BCD2B000057
:1007A8008F2B0130D1001D200130CA000130CB0051
:1007B8004930A9004E30AA004330AB004F30AC009E
:1007C8005230AD005230AE004530AF004330B0007B
:1007D8005430B1004F30B2002030B3002030B400A4
:1007E8002030B5002030B6002030B7002030B800E7
:1007F800B9012930CC00A7201A30FB005E30FC007C
:100808006E30FD00FD0B062CFC0B062CFB0B062C9A
:1008180000005D2A602A2721A201A30100302306D7
:10082800031D182C00302206031D1F2CFD20700804
:0E083800A200A301122C1521EC21102C222C61
:04400E00F22F000786
:00000001FF
