:02000000E92CE9
:10000600103083120313FD00FD0B072800000800C3
:0E001600533083120313FD00FD0B0F2808006A
:0C002400831203130516032005120800C8
:100030008312031305118511B8305704870012206D
:020040000800B6
:100042007F30831203135705F0007008D7000511A3
:100052008511BF30F0057008D70070177008D700FF
:0800620070088700122008005D
:10006A007F30831203135705F1007108D700711FFF
:0E007A00412805148510432805108514080040
:10008800831203130515051285158030F0007008DA
:10009800073ED80058088400FF30800005160B2062
:1000A8000B200708D700051285118030F000700872
:1000B800073ED8005808840080015708F00008005F
:1000C800831203130512051585115708870012209E
:0200D80008001E
:1000DA000030831203135102FF3003180030F1007D
:1000EA0051087F3CFF3003180030F0007008F1041B
:1000FA0000305202FF3003180030F0007008F1049B
:10010A0052083F3CFF3003180030F0007108F00439
:10011A0003199028DF285108D70035205208D70044
:10012A00D70CD713D70CD713D70CD71318205108CD
:10013A00D700212044207008D50044207008D5003B
:10014A005208D700D70CD713D70CD713D70CD7130D
:10015A0018205108D700212007305205F0007008F6
:10016A00D4007008F1000130F00071080319C128A9
:10017A00F00D7010FF3EBB287008D4007009D6003D
:10018A005308003A031DCC285608D505DC28530825
:10019A00013A031DD3285408D504DC285308023A2F
:1001AA00031DDA285408D506DC285408D504550856
:0601BA00D70064200800DC
:0E01C000831203132B088A002A08820008000D
:1001CE0083120313FB01FA01F9018030F800F10CE0
:1001DE00F00C031CFB287408F90775080318750F3B
:1001EE00FA070318FB0A0310F01F03297408FA0715
:1001FE0075080318750FFB07FB0CFA0CF90CF80CBD
:10020E00031CEE287B08F3007A08F2007908F1004F
:06021E007808F000080062
:100224000030831203134802FF3003180030F1003A
:1002340048087F3CFF3003180030F0007108F004D8
:100244000319252952290030460203182A29C60118
:1002540046083F3C031830293F30C60000304702AF
:1002640003183529C70147083F3C03183B293F3091
:10027400C70046084702031845294608CA0047082C
:10028400C6004A08C70046084702031C522948080A
:10029400D1004608D2004908D3006D20C60A45297A
:0202A400080050
:1002A6000030831203134802FF3003180030F100B8
:1002B60048083F3CFF3003180030F0007108F00496
:1002C6000319662993290030460203186B29C601D3
:1002D60046087F3C031871297F30C600003047026C
:1002E60003187629C70147087F3C03187C297F300D
:1002F600C70046084702031886294608CA00470869
:10030600C6004A08C70046084702031C9329460848
:10031600D1004808D2004908D3006D20C60A8629B4
:020326000800CD
:10032800831203134808073C03189B292B2A240827
:100338004602F0002508031C013EF101F1022608DF
:10034800F400F501E7207008CE007108CF004708D7
:10035800D70021204808D7001820CA012603D0005A
:100368004A085002031C0B2A47087F3C0318BD2982
:100378002B2A4708D70035204808D70018204708F7
:10038800D700212044207008CB0044207008CB00FF
:100398004708D70035204808D70018204708D70055
:1003A80021204E082007F00021080318013E4F07BE
:1003B800F1007008AA007108AB00E0208A110A1247
:1003C800F0007008CC00CE0A0319CF0A7009CD00DE
:1003D8004908003A031DF3294D08CB00012A4908B2
:1003E800013A031DFA294C08CB00012A4908023AB0
:1003F800031D012A4C08CB06012A4B08D7006420AC
:10040800C70A4A08500603190B2ACA0AB22947081C
:10041800D70035204808D70018204708D7002120E2
:10042800FF30CC00CD014908003A031D212A4C08B1
:10043800CB004C08D70064202B2A4908013A031D39
:100448002B2A4D08CB004D08D70064202B2A080022
:10045800831203132908003A031D3D2A0530A6001C
:100468000730A2000030A0000830A1002030A4000E
:10047800A501B7013708330784000008003A0319BB
:10048800562A3708330784000008C6003408C70016
:100498003508C8003608C90094212608B407B40AEC
:0604A800B70A3E2A08001D
:1004AE008312031305108514B5013508D7001820E3
:1004BE00B4013308D700642034083F3A0319692A7F
:1004CE00B40A602A3508073A03196F2AB50A5C2A5E
:1004DE0085100514B5013508D7001820B40133086E
:1004EE00D700642034083F3A03197F2AB40A762ACB
:0E04FE003508073A0319852AB50A722A080044
:0C050C00000000000000000000000800DB
:10051800831203133308C6003508C7003408C8001F
:100528003708C90053213308C6003508C700360804
:10053800C8003708C90053213408C6003608C70068
:100548003308C8003708C90012213408C600360825
:0E055800C7003508C8003708C9001221080086
:100566008030831203133406F00080307002031DBE
:10057600BE2A003033020318C22AB301B401803008
:10058600F000803034067002031DCB2A33087F3C0E
:100596000318D02A7F30B300B40180303806F0004B
:1005A60080307002031DD92A003037020318DD2A75
:1005B600B701B8018030F000803038067002031DA4
:1005C600E62A37087F3C0318EB2A7F30B700B801CC
:1005D60080303606F00080307002031DF42A0030A9
:1005E60035020318F82AB501B6018030F0008030D4
:1005F60036067002031D012B35083F3C0318062BF7
:100606003F30B500B60180303A06F0008030700207
:10061600031D0F2B003039020318132BB901BA0141
:100626008030F00080303A067002031D1C2B39081A
:100636003F3C0318212B3F30B900BA013508390277
:10064600F1003608031C013E3A02F2007108BC00B4
:100656007208BD0033083702BE003408031C013E91
:100666003802BF0080307206F00080307002031D31
:100676003E2B0030710203184D2B3C08003CBC0099
:100686003D08031C013EBD01BD02FF30C200FF3024
:10069600C300502B0130C200C30180303F06F0007A
:1006A60080307002031D592B00303E020318682B60
:1006B6003E08003CBE003F08031C013EBF01BF02CE
:1006C600FF30C000FF30C1006B2B0130C000C101FC
:1006D600BC0DBD0D3C10BE0DBF0D3E103308D10044
:1006E6003508D2003B08D3006D2080303D06F0006F
:1006F60080303F067002031D822B3E083C02031821
:10070600CF2B3E08F0003F08F100F10CF00CF1137E
:10071600711BF11770083C02C4007108031C013EEE
:100726003D02C50034083806031D9B2B37083306E7
:100736000319CE2B80304506F00080307002031D71
:10074600A62B00304402031CB42B4208B50743080D
:100756000318013EB6073E08C402031CC5033F0842
:10076600C50240083307F00034080318013E41076C
:10077600F1007008B3007108B4003C08C4073D08D6
:100786000318013EC5077008D1003508D2003B08A2
:10079600D3006D20952B192C3C08F0003D08F10084
:1007A600F10CF00CF113711BF11770083E02C40036
:1007B6007108031C013E3F02C50036083A06031DB8
:1007C600E62B390835060319192C80304506F0004A
:1007D60080307002031DF12B00304402031CFF2BF6
:1007E6004008B30741080318013EB4073C08C40299
:1007F600031CC5033D08C50242083507F00036084C
:100806000318013E4307F1007008B5007108B600F1
:100816003E08C4073F080318013EC5073308D10048
:0E0826007008D2003B08D3006D20E02B0800C4
:10083400831203133008AC002E082C02031C412C35
:100844002D08B300B4012C08B500B6012F08B70079
:10085400B8012C08B900BA010130BB00B322413001
:10086400FC00EE30FD00FD0B352CFC0B352C00009C
:100874002C082E060319412CFF30AC071E2C08004F
:10088400831203132E08B20032083002031C592CC1
:100894002D08C6002F08C7003208C8003108C90057
:1008A4005321320830060319592CB20A462C080089
:1008B40083120313A901A3018316851205120511DE
:1008C400851105108510831285128030F0007008A0
:1008D400073E8400800105118511051085148516D5
:1008E40086223F3087001220C03087001220051472
:1008F40085103F3087001220C03087001220080086
:1009040083120313B30157220530B3000530B4003A
:100914001430B5003C30B6000130B7008C226C3086
:10092400AD006C30AE006530AF006E30B0006F309B
:10093400B100B2012D30B3001930B400B50101305B
:10094400B6002C223330AD002F30AE003430AF006F
:10095400B0012D30B3001930B4000230B5000130BD
:10096400B6002C223230AD002F30AE003430AF0050
:10097400B0012D30B3001930B4000430B50001309B
:10098400B6002C223130AD002F30AE003430AF0031
:10099400B0012D30B3001930B4000630B500013079
:1009A400B6002C225630AD006130AE006330AF008B
:1009B4006930B0006F30B100B2012D30B30019308E
:0E09C400B4000730B5000130B6002C22080048
:1009D20083160317890188010330860083120313EB
:1009E200A8010130A7005A24B30157221A30FB0094
:1009F2005E30FC006E30FD00FD0BFD2CFC0BFD2C6F
:100A0200FB0BFD2C000082240618092D72100A2D02
:100A120072142808003AFF30031D0030F100F00183
:100A22007218F00A7108F00503193C2D0230FB0020
:100A32004530FC00A930FD00FD0B1D2DFC0B1D2DCA
:100A4200FB0B1D2D000000000530B3000530B40083
:100A52001430B5003C30B6000130B7008C22623051
:100A6200FC006530FD00FD0B342DFC0B342D000025
:100A720000000130A8000618402D7210412D72149A
:100A82002808013AFF30031D0030F100F00172180E
:100A9200F00A7108F0050319672D0230FB0045309A
:100AA200FC00A930FD00FD0B542DFC0B542DFB0B5B
:100AB200542D000000000630AD002F30AE00133080
:100AC200AF003B30B0001A240230A80006186B2D8C
:100AD20072106C2D72142808023AFF30031D003088
:100AE200F100F0017218F00A7108F0050319922D55
:100AF2000230FB004530FC00A930FD00FD0B7F2DCC
:100B0200FC0B7F2DFB0B7F2D000000000630AD009B
:100B12002230AE001330AF002E30B0001A24033062
:100B2200A8000618962D7210972D72142808033A01
:100B3200FF30031D0030F100F0017218F00A710855
:100B4200F0050319BD2D0230FB004530FC00A93031
:100B5200FD00FD0BAA2DFC0BAA2DFB0BAA2D0000FC
:100B620000000630AD001530AE001330AF0021306A
:100B7200B0001A240430A8000618C12D7210C22D2C
:100B820072142808043AFF30031D0030F100F0010E
:100B92007218F00A7108F0050319E82D0230FB0003
:100BA2004530FC00A930FD00FD0BD52DFC0BD52DE9
:100BB200FB0BD52D000000000630AD000630AE0064
:100BC2001330AF001430B0001A240530A800861884
:100BD200EC2D7210ED2D72142708013AFF30031D1F
:100BE2000030F100F0017218F00A7108F0050319E3
:100BF200472E0230FB004530FC00A930FD00FD0B02
:100C0200002EFC0B002EFB0B002E00000000063015
:100C1200AD000630AE001330AF001430B000B101A9
:100C220042240630AD001530AE001330AF00213043
:100C3200B000B10142240630AD002230AE001330C4
:100C4200AF002E30B000B10142240630AD002F308B
:100C5200AE001330AF003B30B000B101422405308A
:100C6200B3000530B4001430B5003C30B60001309A
:100C7200B7008C220130A8008230FC00DD30FD007C
:100C8200FD0B412EFC0B412E00000000052D482ECD
:1010000000340034003400340034003400345F34E1
:10101000003400340034073400340734003414340E
:101020007F3414347F34143424342A347F342A3403
:10103000123423341334083464346234363449347B
:101040005534223450340034053403340034003431
:1010500000341C342234413400340034413422340E
:101060001C34003408342A341C342A34083408343C
:1010700008343E34083408340034503430340034FA
:101080000034083408340834083408340034303468
:101090003034003400342034103408340434023442
:1010A0003E345134493445343E34003442347F3484
:1010B00040340034423461345134493446342134AC
:1010C000413445344B3431341834143412347F34C1
:1010D0001034273445344534453439343C344A34AB
:1010E000493449343034013471340934053403341B
:1010F0003634493449344934363406344934493471
:1011000029341E340034363436340034003400348C
:101110005634363400340034003408341434223465
:101120004134143414341434143414344134223417
:101130001434083400340234013451340934063490
:1011400032344934793441343E347E3411341134EC
:1011500011347E347F3449344934493436343E3492
:1011600041344134413422347F34413441342234D7
:101170001C347F3449344934493441347F34093490
:101180000934013401343E34413441345134323471
:101190007F340834083408347F34003441347F34D9
:1011A000413400342034403441343F3401347F34FE
:1011B00008341434223441347F34403440344034D1
:1011C00040347F340234043402347F347F340434B6
:1011D000083410347F343E344134413441343E3499
:1011E0007F3409340934093406343E3441345134EF
:1011F00021345E347F34093419342934463446347A
:101200004934493449343134013401347F340134B0
:1012100001343F344034403440343F341F342034B0
:10122000403420341F347F342034183420347F3449
:101230006334143408341434633403340434783499
:101240000434033461345134493445344334003474
:1012500000347F34413441340234043408341034CF
:101260002034413441347F340034003404340234B7
:101270000134023404344034403440344034403487
:1012800000340134023404340034203454345434EF
:10129000543478347F344834443444343834383423
:1012A00044344434443420343834443444344834AA
:1012B0007F343834543454345434183408347E343D
:1012C00009340134023408341434543454343C3472
:1012D0007F340834043404347834003444347D34A6
:1012E000403400342034403444343D34003400343D
:1012F0007F34103428344434003441347F34403453
:1013000000347C3404341834043478347C340834A5
:101310000434043478343834443444344434383471
:101320007C3414341434143408340834143414342D
:1013300018347C347C34083404340434083448349D
:10134000543454345434203404343F34443440341A
:1013500020343C344034403420347C341C34203439
:10136000403420341C343C344034303440343C3439
:10137000443428341034283444340C345034503439
:1013800050343C344434643454344C3444340034A5
:101390000834363441340034003400347F340034AF
:1013A000003400344134363408340034083408340E
:1013B0002A341C34083408341C342A3408340834E1
:04400E00F22F000786
:00000001FF
