:020000000A28CC
:0E0006008312031321088A00200882000800DC
:10001400831603178901FF308600031388018312B6
:100024008801A301FF3088000830FB009D30FC00EC
:100034000530FD00FD0B1C28FC0B1C28FB0B1C28A9
:100044000000000088010830FB009D30FC000530F2
:10005400FD00FD0B2B28FC0B2B28FB0B2B28000091
:1000640000002308073A03193928A30A1428A30116
:10007400A20122089C3EF00004300318013EF10066
:100084007008A0007108A10003208A110A128800D8
:100094000D30FC00FB30FD00FD0B4E28FC0B4E2800
:1000A400000000002208043A03195A28A20A3B2837
:1000B40088011430FC007930FD00FD0B5F28FC0B37
:1000C4005F2800000000A2012208973EF0000430DF
:1000D4000318013EF1007008A0007108A10003207C
:1000E4008A110A1288000D30FC00FB30FD00FD0B64
:1000F4007928FC0B7928000000002208043A03192F
:100104008528A20A662888011430FC007930FD0095
:10011400FD0B8A28FC0B8A2800000000A20122089B
:10012400923EF00004300318013EF1007008A00074
:100134007108A10003208A110A1288000D30FC0006
:10014400FB30FD00FD0BA428FC0BA42800000000DC
:100154002208043A0319B028A20A9128880114300D
:10016400FC007930FD00FD0BB528FC0BB528000020
:100174000000A2012208A13EF00004300318013E51
:10018400F1007008A0007108A10003208A110A126E
:1001940088000D30FC00FB30FD00FD0BCF28FC0B6C
:1001A400CF28000000002208043A0319DB28A20A21
:1001B400BC288801A330FC005530FD00FD0BE0286D
:1001C400FC0BE0282308FF3A0319EA28A30A3A287B
:1001D40088010D30FB00AF30FC00B630FD00FD0B94
:1001E400F128FC0BF128FB0BF1280000A301A2016C
:1001F4002208B03EF00004300318013EF1007008FC
:10020400A0007108A10003208A110A1288000D3091
:10021400FC00FB30FD00FD0B0D29FC0B0D2900003B
:1002240000002208043A03191929A20AFA288801AD
:100234001430FC007930FD00FD0B1E29FC0B1E2937
:1002440000000000A2012208AB3EF00004300318B5
:10025400013EF1007008A0007108A10003208A117A
:100264000A1288000D30FC00FB30FD00FD0B38291C
:10027400FC0B3829000000002208043A0319442921
:10028400A20A252988011430FC007930FD00FD0BF9
:100294004929FC0B492900000000A2012208A63EBE
:1002A400F00004300318013EF1007008A00071084A
:1002B400A10003208A110A1288000D30FC00FB30D3
:1002C400FD00FD0B6329FC0B6329000000002208DC
:1002D400043A03196F29A20A502988011430FC003A
:1002E4007930FD00FD0B7429FC0B7429000000001B
:1002F400A20122088D3EF00004300318013EF100F3
:100304007008A0007108A10003208A110A12880055
:100314000D30FC00FB30FD00FD0B8E29FC0B8E29FB
:10032400000000002208043A03199A29A20A7B2932
:100334008801A330FC005530FD00FD0B9F29FC0B08
:100344009F292308FF3A0319A929A30AF928880138
:100354000D30FB00AF30FC00B630FD00FD0BB029C2
:10036400FC0BB029FB0BB0290000A301A201220859
:10037400743EF00004300318013EF1007008A00040
:100384007108A10003208A110A1288000D30FC00B4
:10039400FB30FD00FD0BCC29FC0BCC290000000038
:1003A4002208043A0319D829A20AB9298801143069
:1003B400FC007930FD00FD0BDD29FC0BDD2900007C
:1003C4000000A2012208AB3EF00004300318013EF5
:1003D400F1007008A0007108A10003208A110A121C
:1003E40088000D30FC00FB30FD00FD0BF729FC0BF1
:1003F400F729000000002208043A0319032AA20A7C
:10040400E42988011430FC007930FD00FD0B082A32
:10041400FC0B082A00000000A2012208923EF00012
:1004240004300318013EF1007008A0007108A10017
:1004340003208A110A1288000D30FC00FB30FD00F5
:10044400FD0B222AFC0B222A000000002208043A99
:1004540003192E2AA20A0F2A88011430FC007930CD
:10046400FD00FD0B332AFC0B332A00000000A2011F
:1004740022086F3EF00004300318013EF1007008BA
:10048400A0007108A10003208A110A1288000D300F
:10049400FC00FB30FD00FD0B4D2AFC0B4D2A000037
:1004A40000002208043A0319592AA20A3A2A8801A8
:1004B4001430FC007930FD00FD0B5E2AFC0B5E2A33
:1004C40000000000A20122086A3EF0000430031874
:1004D400013EF1007008A0007108A10003208A11F8
:1004E4000A1288000D30FC00FB30FD00FD0B782A59
:1004F400FC0B782A000000002208043A0319842A1D
:10050400A20A652A8801A330FC005530FD00FD0BCA
:10051400892AFC0B892A2308503A0319932AA30A2F
:10052400B8290D30FB00AF30FC00B630FD00FD0BE8
:10053400992AFC0B992AFB0B992A0000A301A2011A
:100544002208A13EF00004300318013EF1007008B7
:10055400A0007108A10003208A110A1288000D303E
:10056400FC00FB30FD00FD0BB52AFC0BB52A000096
:1005740000002208043A0319C12AA20AA22A880107
:100584001430FC007930FD00FD0BC62AFC0BC62A92
:1005940000000000A2012208793EF0000430031894
:1005A400013EF1007008A0007108A10003208A1127
:1005B4000A1288000D30FC00FB30FD00FD0BE02A20
:1005C400FC0BE02A000000002208043A0319EC2A7C
:1005D400A20ACD2A88011430FC007930FD00FD0BFD
:1005E400F12AFC0BF12A00000000A2012208973E28
:1005F400F00004300318013EF1007008A0007108F7
:10060400A10003208A110A1288000D30FC00FB307F
:10061400FD00FD0B0B2BFC0B0B2B00000000220834
:10062400043A0319172BA20AF82A8801A330FC0004
:100634005530FD00FD0B1C2BFC0B1C2B2308503AE2
:100644000319262BA30AA12A0D30FB00AF30FC00AE
:10065400B630FD00FD0B2C2BFC0B2C2BFB0B2C2B99
:100664000000A301A2012208883EF0000430031810
:10067400013EF1007008A0007108A10003208A1156
:100684000A1288000D30FC00FB30FD00FD0B482BE6
:10069400FC0B482B000000002208043A0319542BD9
:1006A400A20A352B88011430FC007930FD00FD0BC3
:1006B400592BFC0B592B00000000A2012208B03E6C
:1006C400F00004300318013EF1007008A000710826
:1006D400A10003208A110A1288000D30FC00FB30AF
:1006E400FD00FD0B732BFC0B732B00000000220894
:1006F400043A03197F2BA20A602B88011430FC00F2
:100704007930FD00FD0B842BFC0B842B00000000D2
:10071400A2012208AB3EF00004300318013EF100B0
:100724007008A0007108A10003208A110A12880031
:100734000D30FC00FB30FD00FD0B9E2BFC0B9E2BB3
:10074400000000002208043A0319AA2BA20A8B2BEA
:1007540088011430FC007930FD00FD0BAF2BFC0B3D
:10076400AF2B00000000A2012208833EF0000430F9
:100774000318013EF1007008A0007108A1000320D5
:100784008A110A1288000D30FC00FB30FD00FD0BBD
:10079400C92BFC0BC92B000000002208043A0319E2
:1007A400D52BA20AB62B88011430FC007930FD0049
:1007B400FD0BDA2BFC0BDA2B00000000A20122084F
:1007C400973EF00004300318013EF1007008A000C9
:1007D4007108A10003208A110A1288000D30FC0060
:1007E400FB30FD00FD0BF42BFC0BF42B0000000090
:1007F4002208043A0319002CA20AE12B8801A33031
:10080400FC005530FD00FD0B052CFC0B052C2308CA
:10081400503A03190F2CA30A342B0D30FB00AF30D0
:10082400FC00B630FD00FD0B152CFC0B152CFB0B4E
:10083400152C000088010D30FB00AF30FC00B630F1
:10084400FD00FD0B232CFC0B232CFB0B232C0000A5
:10085400A301A20122087E3EF00004300318013EE9
:10086400F1007008A0007108A10003208A110A1287
:1008740088000D30FC00FB30FD00FD0B3F2CFC0B11
:100884003F2C000000002208043A03194B2CA20A52
:100894002C2C8801A330FC005530FD00FD0B502C9E
:1008A400FC0B502C2308FF3A03195A2CA30A2B2CB7
:1008B40088010D30FB00AF30FC00B630FD00FD0BAD
:1008C400612CFC0B612CFB0B612C00001328692CA0
:0A08D400C134A13491348934873413
:0A08DE0081348134FF348134813409
:0A08E800FF340934093409340934DF
:0A08F200FE340C343134E134FE34DE
:0A08FC0004340234FF3402340434E3
:0A0906003F344034803440343F3465
:0A091000FF3406341834E034FF34DD
:0A091A008F34893489348934F934AC
:0A092400FF348034803480348034C6
:0A092E00FF34813481348134FF343A
:0A093800FF34103410341034FF3483
:0A094200FF34093409340934FF348E
:0A094C0001340134FF34013401349A
:0A095600FF34913491349134813460
:0A096000FF34803480348034FF340B
:04400E00F22F000786
:00000001FF
