:0200000039289D
:1000060083120313F801F9011030FC00710DF80D8D
:10001600F90D7408F8027508031C750FF902031828
:100026001B287408F80775080318750FF9070310DD
:0A003600F00DF10DFC0B0928080085
:10004000831203137008F100F0010830FC007108FE
:10005000F40C03182F28FC0B2828F101003403109E
:100060003428F40C0318F107F10CF00CFC0B3128C8
:02007000080086
:100072008316031386018701880183128601870193
:100082008801831603178901603083120313A300CA
:100092000930A40000302402031D5128003023023D
:1000A200031C0129E830F4000330F5002308F000B6
:1000B2002408F10003207008AC007108AD002C0880
:1000C200A5006430F400F5012308F0002408F100D3
:1000D20003207008A7007108A8002C08F0000A305D
:1000E200F400202070082702AB002B08A6000A307B
:1000F200F400F5012308F0002408F1000320700841
:10010200A9007108AA002C08F0006430F400202035
:100112007008A7002B08F0000A30F40020202708FE
:10012200F0077008A9022908A2002C08F000E830A4
:10013200F40020207008A7002B08F0006430F400BF
:1001420020207008A7072908F0000A30F4002020B8
:100152002708F00770082302A00000302402031DC4
:10016200B428FF3023020318B82823088800A1010D
:10017200870125088600013087000730FC007D30AA
:10018200FD00FD0BC228FC0BC22887012608860051
:10019200023087000730FC007D30FD00FD0BCF28C8
:1001A200FC0BCF2887012208860004308700073025
:1001B200FC007D30FD00FD0BDC28FC0BDC288701F8
:1001C20020088600083087000730FC007D30FD00E3
:1001D200FD0BE928FC0BE9282108553A0319F328FD
:1001E200A10AB92800302406031DF928003023068D
:1001F20003190129FA30A3070318A40AA4034B2800
:040202004528022960
:04400E00F22F000786
:00000001FF
