:02000000822A52
:0E000600533083120313FD00FD0B0728080082
:10001400243083120313FC00B530FD00FD0B1028BF
:0A002400FC0B10280000000008008B
:0C002E00000000000000000000000800BE
:10003A0083120313CC1B23288711242887154C1BF2
:10004A002828071129280715CC1A2D2887102E28A9
:10005A0087144C1A32280710332807142018372817
:10006A00071638280712871617208712CC193F2837
:10007A008711402887154C19442807114528071568
:10008A00CC18492887104A2887144C184E2807107C
:10009A004F280714201853280716542807128716C2
:1000AA0017208712201C5B280A205C2803200800DE
:1000BA008312031320104B08CC001D2020140800C3
:1000CA00831203134508013A031D6E288030C500C8
:1000DA0085284508023A031D7528C030C5008528C1
:1000EA004508033A031D7C289430C5008528450835
:1000FA00043A031D8328D430C50085288030C50002
:10010A004603F0004508F0077008C5007008CC00E7
:10011A001D202010C8014808470784000008003A3B
:10012A0003199F284808470784000008CB005D2070
:08013A00C80A902820140800F7
:10014200831203137408003A031DAA28FF30F0003B
:10015200BA2883120313F8010830FC00700DF80D61
:100162007408F8020318B728F8070310F00DFC0B07
:04017200AF280800AA
:1001760083120313F801F9011030FC00710DF80D1C
:10018600F90D7408F8027508031C750FF9020318B7
:10019600D3287408F80775080318750FF9070310B4
:0A01A600F00DF10DFC0BC12808005C
:1001B000103083120313FD00FD0BDC280000080043
:1001C00083120313C801C9011030C700C5010430F0
:1001D000490203181729F03086000630CA00803023
:1001E0004A07F1007108CA004709F000710884004D
:1001F00070088000172017200F300605F1007108E5
:10020000C6007108003A031911294808C5004608BC
:10021000003A03190F29C60CC613C50A0729043072
:10022000C900C70D47100430C807C90AE7284508A8
:04023000F0000800D2
:1002340083120313FB01FA01F9018030F800F10C79
:10024400F00C031C2E297408F90775080318750FA0
:10025400FA070318FB0A0310F01F36297408FA077B
:1002640075080318750FFB07FB0CFA0CF90CF80C56
:10027400031C21297B08F3007A08F2007908F100B5
:060284007808F0000800FC
:10028A000D3083120313FB00AF30FC00B630FD00C3
:10029A00FD0B4D29FC0B4D29FB0B4D2900000130AC
:1002AA00CC001D200130C5000130C6005630BE000A
:1002BA006130BF006C30C0006F30C1007230C200C4
:1002CA003A30C300C4013E30C7006520B301B4010F
:0202DA0008001A
:1002DC0083120313BF013F083E0784000008003A55
:1002EC00031980293F083E0784000008CB005D20DD
:0602FC00BF0A7129080091
:10030200831203133E08F1003E08F20072088400D3
:100312000008203A031D8F29F20A872972088400F7
:100322000008F0007108840070088000F10AF20AE7
:10033200720884000008003A0319A0298F29710865
:06034200840080010800A8
:10034800831203134008840020308000840A203080
:100358008000840A20308000840A20308000840ACB
:1003680030308000840A8001840A04304007C100CC
:1003780000303F06031DC22900303E060319E42958
:100388000A30F400F5013E08F0003F08F100BB20F8
:100398007808F0007908F1003030F007410884004F
:1003A800700880000A30F400F5013E08F0003F08AC
:1003B800F100BB207008BE007108BF00C103BC2952
:0203C80008002B
:1003CA00803083120313F0007008063E8400FF3069
:0403DA008000080097
:1003DE008316031387120712071087100711871150
:1003EE0083128712071287110711871007100A2030
:1003FE000A200A20871407148716172087120A204E
:10040E008716172087120A208716172087120A20B0
:10041E0007108716172087120A20871617208712B3
:10042E00871087158716172087120A208711071441
:10043E0087161720871207108716172087120A2093
:10044E0087161720871207148716172087120A207F
:10045E00071087161720871287150715871407149C
:0C046E008716172087120A2020140800AF
:10047A00831203133F08840020308000840A20304E
:10048A008000840A30308000840A8001840A0230A5
:10049A003F07C0003E08003A0319692A0A30F400EF
:1004AA003E08F000A1207808F0003030F00740083C
:1004BA008400700880000A30F4003E08F000A12091
:0A04CA007008BE00C0034F2A0800AE
:1004D400E0207008BE000630C000400884000F30E1
:1004E4000005BF003F08003A03197F2AD8204008BE
:1004F40084000F300005BF00742A3E08F000080095
:1005040083160317890183120313B301B4018316FD
:100514008701EF21E5210130C5000130C6005630C6
:10052400B7006130B8006C30B9006F30BA00723077
:10053400BB003A30BC00BD013730C7006520A801BC
:10054400A90100302906031DA92A00302806031D2D
:10055400B02A6A227008A800A901A32A003029063B
:10056400031DB62A01302806031DBC2A0130AA0047
:10057400AB016F2B00302906031DC22A0230280666
:10058400031DC82A0230AA00AB016F2B00302906D4
:10059400031DCE2A03302806031DD42A0330AA00E3
:1005A400AB016F2B00302906031DDA2A043028061C
:1005B400031DE02A4130AA00AB016F2B003029064D
:1005C400031DE62A05302806031DEC2A0430AA0080
:1005D400AB016F2B00302906031DF22A06302806D2
:1005E400031DF82A0530AA00AB016F2B0030290641
:1005F400031DFE2A07302806031D042B0630AA001B
:10060400AB016F2B00302906031D0A2B0830280686
:10061400031D102B4230AA00AB016F2B00302906BA
:10062400031D162B09302806031D1C2B0730AA00B6
:10063400AB016F2B00302906031D222B0A3028063C
:10064400031D282B0830AA00AB016F2B00302906AC
:10065400031D2E2B0B302806031D342B0930AA0052
:10066400AB016F2B00302906031D3A2B0C302806F2
:10067400031D402B4330AA00AB016F2B0030290629
:10068400031D462B0D302806031D4C2B2A30AA00CF
:10069400AB016F2B00302906031D522B0E302806A8
:1006A400031D572BAA01AB016F2B00302906031D34
:1006B4005D2B0F302806031D632B2330AA00AB01EA
:1006C4006F2B00302906031D692B10302806031DEB
:1006D4006F2B4430AA00AB016F2B00302B02031D9B
:1006E400752B0A302A020318922B2A08BE002C30DC
:1006F400BF003D222C30BE0081212C30BE006E2173
:100704003308F0003408F1000A30F400F5011A212E
:100714002A087007B30071080318013E2B07B400C0
:1007240000302B06031D982B23302A06031DD12BE2
:100734003308B5003408B60000303402031DA42B7E
:1007440000303302031CD02B3508BE003608BF002E
:100754002130C000A4210230C5000730C60021307A
:10076400C70065200230FB004530FC00A930FD00C5
:10077400FD0BBA2BFC0BBA2BFB0BBA2B00000000B1
:1007840000303606031DC82B003035060319D02B64
:10079400FF30B5070318B60AB603A62B452100306F
:1007A4002B06031DD72B2A302A06031D0C2CB5015A
:1007B400B60136083402031DE12B35083302031C4D
:1007C4000B2C3508BE003608BF002130C000A42120
:1007D4000230C5000730C6002130C7006520023052
:1007E400FB004530FC00A930FD00FD0BF72BFC0B92
:1007F400F72BFB0BF72B0000000036083406031D13
:10080400052C3308350603190B2CB50A0319B60A4F
:08081400DB2B4521A12A0D2C6C
:04400E00F22F000786
:00000001FF
