:020000003C2D95
:0C000600000000000000000000000800E6
:10001200243083120313FC00B530FD00FD0B0F28C2
:0A002200FC0B0F280000000008008E
:0E002C00533083120313FD00FD0B1A28080049
:10003A0083120313D51B2328871124288715551BE0
:10004A002828071129280715D51A2D2887102E28A0
:10005A008714551A3228071033280714A21837288C
:10006A00071638280712871603208712D5193F2842
:10007A00871140288715551944280711452807155F
:10008A00D518492887104A28871455184E2807106A
:10009A004F280714A2185328071654280712871640
:1000AA0003208712A21C5B2809205C28162008005E
:1000BA0083120313A2105408D5001D20A2140800AD
:1000CA0083120313F801F9011030FC00710DF80DC9
:1000DA00F90D7408F8027508031C750FF902031864
:1000EA007D287408F80775080318750FF9070310B7
:0A00FA00F00DF10DFC0B6B2808005F
:10010400103083120313FD00FD0B86280000080045
:1001140083120313D101D2011030D000CE01043078
:1001240052020318C128F03086000630D300803014
:100134005307F1007108D3005009F00071088400DE
:1001440070088000032003200F300605F1007108B9
:10015400CF007108003A0319BB285108CE004F089C
:10016400003A0319B928CF0CCF13CE0AB1280430B2
:10017400D200D00D50100430D107D20A91284E0875
:04018400F00008007F
:10018800831203134E08013A031DCD288030CE0098
:10019800E4284E08023A031DD428C030CE00E428D3
:1001A8004E08033A031DDB289430CE00E4284E089D
:1001B800043A031DE228D430CE00E4288030CE0073
:1001C8004F03F0004E08F0077008CE007008D50005
:1001D8001D20A210D1015108500784000008003AE0
:1001E8000319FE285108500784000008D4005D2038
:0801F800D10AEF28A21408004F
:10020000831203132230FC00F801F901FA01FB010B
:10021000FC03031936290310FB0CFA0CF90CF80C3B
:10022000F30CF20CF10CF00C031C0829FC0303196D
:1002300028297408F80775080318750FF907760858
:100240000318760FFA0777080318770FFB070C29B6
:100250007408F80775080318750FF907760803186E
:0E026000760FFA0777080318770FFB070800E0
:10026E00831203134908840020308000840A203052
:10027E008000840A20308000840A20308000840AA6
:10028E0030308000840A8001840A04304907CA0095
:10029E0000304806031D55290030470603197729FB
:1002AE000A30F400F5014708F0004808F100652017
:1002BE007808F0007908F1003030F0074A08840021
:1002CE00700880000A30F400F5014708F000480875
:1002DE00F10065207008C7007108C800CA034F29D5
:0202EE00080006
:1002F000013083120313D5001D200130CE000130E0
:10030000CF005630C7006130C8006C30C9006F3074
:10031000CA007230CB003A30CC00CD014730D0005B
:0E032000C420B401B501B601B7018801080080
:10032E008A207008C7000630C900490884000F30C3
:10033E000005C8004808003A0319AC298220490874
:10034E0084000F300005C800A1294708F0000800FE
:10035E00043083120313B1003408B2003508B30021
:10036E0000303502031DBD2901303402031C322A30
:10037E003208C7003308C8002630C90037210230C2
:10038E00CE000730CF002630D000C4202508013A19
:10039E00031DEE293108013A031DD82901308800CA
:1003AE00ED293108023A031DDF2902308800ED29BC
:1003BE003108033A031DE62904308800ED2931087F
:1003CE00043A031DED2908308800ED290F2A25086F
:1003DE00023A031D0F2A3108013A031DF929033091
:1003EE0088000E2A3108023A031D002A06308800C2
:1003FE000E2A3108033A031D072A0C3088000E2AF4
:10040E003108043A031D0E2A093088000E2A0F2ADD
:10041E000230FB004530FC00A930FD00FD0B152A13
:10042E00FC0B152AFB0B152A00000000B10301304E
:10043E0031020318242A0430B10000303306031DA4
:10044E002A2A013032060319322AFF30B207031866
:0A045E00B30AB303BF297821080098
:08046800831203138801080050
:1004700083120313B1010130B200B301003037021F
:10048000031D4C2A00303602031D4C2A3308350266
:10049000031D4C2A32083402031CC82AB10A310851
:1004A000043C0318552A0130B1003208C700330854
:1004B000C8002630C90037210230CE000730CF00F7
:1004C0002630D000C4202508013A031D842A3108B3
:1004D000013A031D6E2A01308800832A3108023A4E
:1004E000031D752A02308800832A3108033A031D50
:1004F0007C2A04308800832A3108043A031D832AA9
:1005000008308800832AA52A2508023A031DA52A57
:100510003108013A031D8F2A03308800A42A3108CC
:10052000023A031D962A06308800A42A3108033AAD
:10053000031D9D2A0C308800A42A3108043A031DAB
:10054000A42A09308800A42AA52A0230FB004530DD
:10055000FC00A930FD00FD0BAB2AFC0BAB2AFB0B0A
:10056000AB2A000000000030F0003706031DC22A4D
:1005700070083606031DC22A33083506031DC22A39
:10058000340832060319C82AB20A0319B30A3E2AEC
:0405900078210800C6
:1005940083120313B1010130B200B30100303702FA
:1005A400031DDE2A00303602031DDE2A330835021D
:1005B400031DDE2A32083402031C502BB10A310811
:1005C400083C0318E72A0130B1003208C700330899
:1005D400C8002630C90037210230CE000730CF00D2
:1005E4002630D000C4203108013A031DFC2A013012
:1005F40088002D2B3108023A031D032B0330880099
:100604002D2B3108033A031D0A2B023088002D2BB1
:100614003108043A031D112B063088002D2B3108B4
:10062400053A031D182B043088002D2B3108063A97
:10063400031D1F2B0C3088002D2B3108073A031D96
:10064400262B083088002D2B3108083A031D2D2B4A
:10065400093088002D2B0230FB004530FC00A93006
:10066400FD00FD0B332BFC0B332BFB0B332B00005A
:1006740000000030F0003706031D4A2B70083606D0
:10068400031D4A2B33083506031D4A2B3408320652
:100694000319502BB20A0319B30AD02A782108008F
:1006A400803083120313F0007008063E8400FF308C
:0406B40080000800BA
:1006B8008316031387120712071087100711871173
:1006C8008312871207128711071187100710092054
:1006D8000920092087140714871603208712092088
:1006E80087160320871209208716032087120920FE
:1006F8000710871603208712092087160320871200
:100708008710871587160320871209208711071479
:1007180087160320871207108716032087120920DF
:1007280087160320871207148716032087120920CB
:1007380007108716032087128715071587140714D3
:0C0748008716032087120920A214080065
:10075400083083120313B1003408B2003508B30023
:1007640000303502031DB82B01303402031C232C46
:100774003208C7003308C8002630C90037210230C8
:10078400CE000730CF002630D000C4203108013A13
:10079400031DCF2B01308800002C3108023A031DC1
:1007A400D62B03308800002C3108033A031DDD2BBF
:1007B40002308800002C3108043A031DE42B063073
:1007C4008800002C3108053A031DEB2B0430880007
:1007D400002C3108063A031DF22B0C308800002C43
:1007E4003108073A031DF92B08308800002C310822
:1007F400083A031D002C09308800002C0230FB004D
:100804004530FC00A930FD00FD0B062CFC0B062C2A
:10081400FB0B062C00000000B10301303102031869
:10082400152C0830B10000303306031D1B2C013099
:1008340032060319232CFF30B2070318B30AB3039B
:06084400BA2B7821080028
:10084A0083120313A001A10100302106031D2F2CDE
:10085A0000302006031D362C97217008A000A10144
:10086A00292C00302106031D3C2C01302006031DD3
:10087A00422C0130A300A401F52C00302106031DEF
:10088A00482C02302006031D4E2C0230A300A4017E
:10089A00F52C00302106031D542C03302006031DBD
:1008AA005A2C0330A300A401F52C00302106031DA5
:1008BA00602C04302006031D662C4130A300A401DD
:1008CA00F52C00302106031D6C2C05302006031D73
:1008DA00722C0430A300A401F52C00302106031D5C
:1008EA00782C06302006031D7E2C0530A300A401B7
:1008FA00F52C00302106031D842C07302006031D29
:10090A008A2C0630A300A401F52C00302106031D11
:10091A00902C08302006031D962C4230A300A40117
:10092A00F52C00302106031D9C2C09302006031DDE
:10093A00A22C0730A300A401F52C00302106031DC8
:10094A00A82C0A302006031DAE2C0830A300A401EF
:10095A00F52C00302106031DB42C0B302006031D94
:10096A00BA2C0930A300A401F52C00302106031D7E
:10097A00C02C0C302006031DC62C4330A300A40152
:10098A00F52C00302106031DCC2C0D302006031D4A
:10099A00D22C2A30A300A401F52C00302106031D15
:1009AA00D82C0E302006031DDD2CA301A401F52C42
:1009BA0000302106031DE32C0F302006031DE92C0D
:1009CA002330A300A401F52C00302106031DEF2CCF
:1009DA0010302006031DF52C4430A300A401F52C89
:1009EA0000302402031DFB2C0A302302FF300318B7
:1009FA000030F100A219032D0310042D0314F00195
:100A0A000318F00A7008F10522190D2D03140E2D92
:100A1A000310F0010318F00A7108F00503193B2DC1
:100A2A002308303ED4005D203408F0003508F10078
:100A3A003608F2003708F3000A30F400F501F6012F
:100A4A00F70100212308B4002408B500B601B70154
:100A5A007008B40771080318710FB50772080318F4
:0E0A6A00720FB60773080318730FB707080062
:100A780083160317890188010313870188018312EC
:100A880088015C235223B401B501B601B701A21154
:100A980022110130CE000130CF004130B8002E3095
:100AA800B9002030BA004130BB007330BC0063305D
:100AB800BD006530BE006E30BF006430C0006530D8
:100AC800C1006E30C2007430C3006530C400C50177
:100AD8003830D000C4200230CE000130CF00423080
:100AE800B8002E30B9002030BA004430BB00653061
:100AF800BC007330BD006330BE006530BF006E308F
:100B0800C0006430C1006530C2006E30C30074306C
:100B1800C4006530C500C6013830D000C420252483
:100B280000302406031D9A2D41302306031D9F2DF6
:100B38002210A215AB2D00302406031DA52D42302E
:100B48002306031DAA2D2214A215AB2D932D78215F
:100B58000130CE000130CF005630B8006130B90006
:100B68006C30BA006F30BB007230BC003A30BD0048
:100B7800BE013830D000C420252400302406031DCF
:100B8800C72D44302306FF30031D0030F10000302C
:100B98003702031DD92D01303602031DD92D00302F
:100BA8003502031DD92D00303402FF300318003000
:100BB800F0007008F1053708003C031DED2D3608DC
:100BC800003C031DED2D3508003C031DED2D3408B8
:100BD800003CFF3003180030F0007108F0050319DD
:100BE800F62D862E00302406031DFC2D44302306E6
:100BF800FF30031D0030F1000030F0003706031D00
:100C08000F2E70083606031D0F2E70083506031DBB
:100C18000F2E3408003AFF30031D0030F000710831
:100C2800F0050319482E78210130CE000130CF009D
:100C38004930B8006E30B9006730BA007230BB0076
:100C48006530BC007330BD006530BE002030BF0089
:100C58007630C0006130C1006C30C2006F30C30014
:100C68007230C400C5013830D000C4201A30FB00EF
:100C78005E30FC006E30FD00FD0B402EFC0B402E5C
:100C8800FB0B402E0000AB2D3708003C031D562EF1
:100C98003608003C031D562E3508FF3C031D562E12
:100CA8003408FF3C0318852E78210130CE0001302E
:100CB800CF004530B8005230B9005230BA004F303A
:100CC800BB005230BC002030BD005230BE00413065
:100CD800BF004E30C0004730C1004F30C200C301D2
:100CE8003830D000C4201A30FB005E30FC006E3073
:100CF800FD00FD0B7D2EFC0B7D2EFB0B7D2E0000D9
:100D0800AB2DC02D0130D5001D200130CE000130A3
:100D1800CF004130B8002E30B9002030BA0053302F
:100D2800BB003130BC00BD013830D000C4200130D8
:100D3800CE000A30CF004230B8002E30B900203043
:100D4800BA005330BB003230BC00BD013830D0008F
:100D5800C4200230CE000130CF004330B8002E301E
:100D6800B9002030BA005330BB003330BC00BD019D
:100D78003830D000C4202215252400302406031D55
:100D8800C72E41302306031DD52E0130D5001D2066
:100D98000130A5002218D22E3822D32EAF213422BA
:100DA8003C2D00302406031DDB2E42302306031D94
:100DB800E92E0130D5001D200230A5002218E62EAC
:100DC8003822E72EAF2134223C2D00302406031DA3
:100DD800EF2E43302306031DFD2E0130D5001D20C4
:100DE8000330A5002218FA2ECA22FB2EAA23342289
:060DF8003C2DC02EFE2E72
:04400E00F22F000786
:00000001FF
